{
    "_format": "hh-sol-artifact-1",
    "contractName": "Bank",
    "sourceName": "contracts/Bank.sol",
    "abi": [
        {
            "inputs": [],
            "stateMutability": "nonpayable",
            "type": "constructor"
        },
        {
            "inputs": [],
            "name": "bankName",
            "outputs": [
                {
                    "internalType": "string",
                    "name": "",
                    "type": "string"
                }
            ],
            "stateMutability": "view",
            "type": "function"
        },
        {
            "inputs": [],
            "name": "bankOwner",
            "outputs": [
                {
                    "internalType": "address",
                    "name": "",
                    "type": "address"
                }
            ],
            "stateMutability": "view",
            "type": "function"
        },
        {
            "inputs": [
                {
                    "internalType": "address",
                    "name": "",
                    "type": "address"
                }
            ],
            "name": "customerBalance",
            "outputs": [
                {
                    "internalType": "uint256",
                    "name": "",
                    "type": "uint256"
                }
            ],
            "stateMutability": "view",
            "type": "function"
        },
        {
            "inputs": [],
            "name": "depositeMoney",
            "outputs": [],
            "stateMutability": "payable",
            "type": "function"
        },
        {
            "inputs": [],
            "name": "getBankBalance",
            "outputs": [
                {
                    "internalType": "uint256",
                    "name": "",
                    "type": "uint256"
                }
            ],
            "stateMutability": "view",
            "type": "function"
        },
        {
            "inputs": [],
            "name": "getCustomerBalance",
            "outputs": [
                {
                    "internalType": "uint256",
                    "name": "",
                    "type": "uint256"
                }
            ],
            "stateMutability": "view",
            "type": "function"
        },
        {
            "inputs": [
                {
                    "internalType": "string",
                    "name": "_bankName",
                    "type": "string"
                }
            ],
            "name": "setBankName",
            "outputs": [],
            "stateMutability": "nonpayable",
            "type": "function"
        },
        {
            "inputs": [
                {
                    "internalType": "address payable",
                    "name": "_to",
                    "type": "address"
                },
                {
                    "internalType": "uint256",
                    "name": "_amount",
                    "type": "uint256"
                }
            ],
            "name": "transferwithinBank",
            "outputs": [],
            "stateMutability": "payable",
            "type": "function"
        },
        {
            "inputs": [
                {
                    "internalType": "address payable",
                    "name": "_to",
                    "type": "address"
                },
                {
                    "internalType": "uint256",
                    "name": "_amount",
                    "type": "uint256"
                }
            ],
            "name": "withdrawMoney",
            "outputs": [],
            "stateMutability": "payable",
            "type": "function"
        }
    ],
    "bytecode": "0x608060405234801561001057600080fd5b50336000806101000a81548173ffffffffffffffffffffffffffffffffffffffff021916908373ffffffffffffffffffffffffffffffffffffffff160217905550610e1d806100606000396000f3fe6080604052600436106100865760003560e01c8063701426901161005957806370142690146101195780637b83b50b14610142578063a853409a1461016d578063e147aaa714610198578063f274c897146101c357610086565b806327d358011461008b57806337ebe47b146100b65780633f925f7a146100f3578063530730a2146100fd575b600080fd5b34801561009757600080fd5b506100a06101df565b6040516100ad9190610b1d565b60405180910390f35b3480156100c257600080fd5b506100dd60048036038101906100d8919061088f565b61026d565b6040516100ea9190610bbf565b60405180910390f35b6100fb610285565b005b610117600480360381019061011291906108b8565b610321565b005b34801561012557600080fd5b50610140600480360381019061013b91906108f4565b61049a565b005b34801561014e57600080fd5b5061015761053e565b6040516101649190610bbf565b60405180910390f35b34801561017957600080fd5b506101826105d5565b60405161018f9190610bbf565b60405180910390f35b3480156101a457600080fd5b506101ad61061c565b6040516101ba9190610b02565b60405180910390f35b6101dd60048036038101906101d891906108b8565b610640565b005b600180546101ec90610d01565b80601f016020809104026020016040519081016040528092919081815260200182805461021890610d01565b80156102655780601f1061023a57610100808354040283529160200191610265565b820191906000526020600020905b81548152906001019060200180831161024857829003601f168201915b505050505081565b60026020528060005260406000206000915090505481565b60003414156102c9576040517f08c379a00000000000000000000000000000000000000000000000000000000081526004016102c090610b5f565b60405180910390fd5b34600260003373ffffffffffffffffffffffffffffffffffffffff1673ffffffffffffffffffffffffffffffffffffffff16815260200190815260200160002060008282546103189190610bf6565b92505081905550565b600260003373ffffffffffffffffffffffffffffffffffffffff1673ffffffffffffffffffffffffffffffffffffffff168152602001908152602001600020548111156103a3576040517f08c379a000000000000000000000000000000000000000000000000000000000815260040161039a90610b3f565b60405180910390fd5b80600260003373ffffffffffffffffffffffffffffffffffffffff1673ffffffffffffffffffffffffffffffffffffffff16815260200190815260200160002060008282546103f29190610c4c565b9250508190555080600260008473ffffffffffffffffffffffffffffffffffffffff1673ffffffffffffffffffffffffffffffffffffffff16815260200190815260200160002060008282546104489190610bf6565b925050819055508173ffffffffffffffffffffffffffffffffffffffff166108fc829081150290604051600060405180830381858888f19350505050158015610495573d6000803e3d6000fd5b505050565b60008054906101000a900473ffffffffffffffffffffffffffffffffffffffff1673ffffffffffffffffffffffffffffffffffffffff163373ffffffffffffffffffffffffffffffffffffffff1614610528576040517f08c379a000000000000000000000000000000000000000000000000000000000815260040161051f90610b7f565b60405180910390fd5b818160019190610539929190610763565b505050565b60008060009054906101000a900473ffffffffffffffffffffffffffffffffffffffff1673ffffffffffffffffffffffffffffffffffffffff163373ffffffffffffffffffffffffffffffffffffffff16146105cf576040517f08c379a00000000000000000000000000000000000000000000000000000000081526004016105c690610b9f565b60405180910390fd5b47905090565b6000600260003373ffffffffffffffffffffffffffffffffffffffff1673ffffffffffffffffffffffffffffffffffffffff16815260200190815260200160002054905090565b60008054906101000a900473ffffffffffffffffffffffffffffffffffffffff1681565b600260003373ffffffffffffffffffffffffffffffffffffffff1673ffffffffffffffffffffffffffffffffffffffff168152602001908152602001600020548111156106c2576040517f08c379a00000000000000000000000000000000000000000000000000000000081526004016106b990610b3f565b60405180910390fd5b80600260003373ffffffffffffffffffffffffffffffffffffffff1673ffffffffffffffffffffffffffffffffffffffff16815260200190815260200160002060008282546107119190610c4c565b925050819055508173ffffffffffffffffffffffffffffffffffffffff166108fc829081150290604051600060405180830381858888f1935050505015801561075e573d6000803e3d6000fd5b505050565b82805461076f90610d01565b90600052602060002090601f01602090048101928261079157600085556107d8565b82601f106107aa57803560ff19168380011785556107d8565b828001600101855582156107d8579182015b828111156107d75782358255916020019190600101906107bc565b5b5090506107e591906107e9565b5090565b5b808211156108025760008160009055506001016107ea565b5090565b60008135905061081581610da2565b92915050565b60008135905061082a81610db9565b92915050565b60008083601f84011261084257600080fd5b8235905067ffffffffffffffff81111561085b57600080fd5b60208301915083600182028301111561087357600080fd5b9250929050565b60008135905061088981610dd0565b92915050565b6000602082840312156108a157600080fd5b60006108af84828501610806565b91505092915050565b600080604083850312156108cb57600080fd5b60006108d98582860161081b565b92505060206108ea8582860161087a565b9150509250929050565b6000806020838503121561090757600080fd5b600083013567ffffffffffffffff81111561092157600080fd5b61092d85828601610830565b92509250509250929050565b61094281610c80565b82525050565b600061095382610bda565b61095d8185610be5565b935061096d818560208601610cce565b61097681610d91565b840191505092915050565b600061098e601683610be5565b91507f496e73756666696369656e742042616c616e6365202e000000000000000000006000830152602082019050919050565b60006109ce601e83610be5565b91507f4465706f7369746520616d6f756e74206d757374206e6f7420626520302e00006000830152602082019050919050565b6000610a0e602883610be5565b91507f596f75206d7573742062652062616e6b206f776e657220746f2073657420426160008301527f6e6b204e616d652e0000000000000000000000000000000000000000000000006020830152604082019050919050565b6000610a74604d83610be5565b91507f596f7520617265206e6f7420617574686f72697a656420746f2073656520626160008301527f6e6b2062616c616e63652c2042616e6b204f776e65722063616e20736565206260208301527f616e6b2062616c616e6365202e000000000000000000000000000000000000006040830152606082019050919050565b610afc81610cc4565b82525050565b6000602082019050610b176000830184610939565b92915050565b60006020820190508181036000830152610b378184610948565b905092915050565b60006020820190508181036000830152610b5881610981565b9050919050565b60006020820190508181036000830152610b78816109c1565b9050919050565b60006020820190508181036000830152610b9881610a01565b9050919050565b60006020820190508181036000830152610bb881610a67565b9050919050565b6000602082019050610bd46000830184610af3565b92915050565b600081519050919050565b600082825260208201905092915050565b6000610c0182610cc4565b9150610c0c83610cc4565b9250827fffffffffffffffffffffffffffffffffffffffffffffffffffffffffffffffff03821115610c4157610c40610d33565b5b828201905092915050565b6000610c5782610cc4565b9150610c6283610cc4565b925082821015610c7557610c74610d33565b5b828203905092915050565b6000610c8b82610ca4565b9050919050565b6000610c9d82610ca4565b9050919050565b600073ffffffffffffffffffffffffffffffffffffffff82169050919050565b6000819050919050565b60005b83811015610cec578082015181840152602081019050610cd1565b83811115610cfb576000848401525b50505050565b60006002820490506001821680610d1957607f821691505b60208210811415610d2d57610d2c610d62565b5b50919050565b7f4e487b7100000000000000000000000000000000000000000000000000000000600052601160045260246000fd5b7f4e487b7100000000000000000000000000000000000000000000000000000000600052602260045260246000fd5b6000601f19601f8301169050919050565b610dab81610c80565b8114610db657600080fd5b50565b610dc281610c92565b8114610dcd57600080fd5b50565b610dd981610cc4565b8114610de457600080fd5b5056fea2646970667358221220bd30b40c341b907233711a2161dc5dc2da53ba1946be98cb53ca34df92b82c7764736f6c63430008000033",
    "linkReferences": {},
    "deployedLinkReferences": {}
}